{
  "address": "0xf201fFeA8447AB3d43c98Da3349e0749813C9009",
  "abi": [
    {
      "inputs": [],
      "name": "addressNotAllowed",
      "type": "error"
    },
    {
      "inputs": [],
      "name": "balanceInsufficient",
      "type": "error"
    },
    {
      "inputs": [],
      "name": "charityNameToLong",
      "type": "error"
    },
    {
      "anonymous": false,
      "inputs": [
        {
          "indexed": true,
          "internalType": "address",
          "name": "previousOwner",
          "type": "address"
        },
        {
          "indexed": true,
          "internalType": "address",
          "name": "newOwner",
          "type": "address"
        }
      ],
      "name": "OwnershipTransferred",
      "type": "event"
    },
    {
      "anonymous": false,
      "inputs": [
        {
          "indexed": true,
          "internalType": "address",
          "name": "_address",
          "type": "address"
        },
        {
          "indexed": false,
          "internalType": "uint256",
          "name": "_amount",
          "type": "uint256"
        }
      ],
      "name": "charityFunded",
      "type": "event"
    },
    {
      "anonymous": false,
      "inputs": [
        {
          "indexed": true,
          "internalType": "address",
          "name": "_address",
          "type": "address"
        },
        {
          "indexed": false,
          "internalType": "uint256",
          "name": "_amount",
          "type": "uint256"
        }
      ],
      "name": "fundsSentToCharity",
      "type": "event"
    },
    {
      "anonymous": false,
      "inputs": [
        {
          "indexed": true,
          "internalType": "address",
          "name": "_address",
          "type": "address"
        },
        {
          "indexed": false,
          "internalType": "bytes32",
          "name": "_name",
          "type": "bytes32"
        }
      ],
      "name": "newCharityAllowed",
      "type": "event"
    },
    {
      "stateMutability": "payable",
      "type": "fallback"
    },
    {
      "inputs": [],
      "name": "addToCharityFund",
      "outputs": [],
      "stateMutability": "payable",
      "type": "function"
    },
    {
      "inputs": [
        {
          "internalType": "string",
          "name": "_charityName",
          "type": "string"
        },
        {
          "internalType": "address",
          "name": "_address",
          "type": "address"
        }
      ],
      "name": "allowNewCharity",
      "outputs": [],
      "stateMutability": "nonpayable",
      "type": "function"
    },
    {
      "inputs": [
        {
          "internalType": "address",
          "name": "",
          "type": "address"
        }
      ],
      "name": "allowedCharities",
      "outputs": [
        {
          "internalType": "uint256",
          "name": "charityBalance",
          "type": "uint256"
        },
        {
          "internalType": "bytes32",
          "name": "charityName",
          "type": "bytes32"
        },
        {
          "internalType": "bool",
          "name": "exists",
          "type": "bool"
        }
      ],
      "stateMutability": "view",
      "type": "function"
    },
    {
      "inputs": [],
      "name": "charityFundBalance",
      "outputs": [
        {
          "internalType": "uint256",
          "name": "",
          "type": "uint256"
        }
      ],
      "stateMutability": "view",
      "type": "function"
    },
    {
      "inputs": [
        {
          "internalType": "address",
          "name": "_address",
          "type": "address"
        }
      ],
      "name": "checkAllowedCharityFunding",
      "outputs": [
        {
          "internalType": "uint256",
          "name": "",
          "type": "uint256"
        }
      ],
      "stateMutability": "view",
      "type": "function"
    },
    {
      "inputs": [
        {
          "internalType": "address",
          "name": "_address",
          "type": "address"
        }
      ],
      "name": "checkCharityName",
      "outputs": [
        {
          "internalType": "bytes32",
          "name": "",
          "type": "bytes32"
        }
      ],
      "stateMutability": "view",
      "type": "function"
    },
    {
      "inputs": [],
      "name": "owner",
      "outputs": [
        {
          "internalType": "address",
          "name": "",
          "type": "address"
        }
      ],
      "stateMutability": "view",
      "type": "function"
    },
    {
      "inputs": [],
      "name": "renounceOwnership",
      "outputs": [],
      "stateMutability": "nonpayable",
      "type": "function"
    },
    {
      "inputs": [
        {
          "internalType": "address",
          "name": "_address",
          "type": "address"
        },
        {
          "internalType": "uint256",
          "name": "_amount",
          "type": "uint256"
        }
      ],
      "name": "sendToCharity",
      "outputs": [],
      "stateMutability": "nonpayable",
      "type": "function"
    },
    {
      "inputs": [
        {
          "internalType": "address",
          "name": "newOwner",
          "type": "address"
        }
      ],
      "name": "transferOwnership",
      "outputs": [],
      "stateMutability": "nonpayable",
      "type": "function"
    },
    {
      "stateMutability": "payable",
      "type": "receive"
    }
  ],
  "transactionHash": "0x67833f5e42b246a01d2b44c70dfc2af8491bcff6e5cc6fef07516e0563ab0c4d",
  "args": [],
  "numDeployments": 1,
  "solcInputHash": "0b40333c5387e683167b3a1cdebb302c",
  "bytecode": "0x608060405234801561001057600080fd5b5061001a3361001f565b61006f565b600080546001600160a01b038381166001600160a01b0319831681178455604051919092169283917f8be0079c531659141344cd1fd0a4f28419497f9722a3daafe3b4186f6b6457e09190a35050565b6107b58061007e6000396000f3fe6080604052600436106100955760003560e01c80638da5cb5b116100595780638da5cb5b1461018f57806391559223146101b7578063a0b34191146101ca578063e3b3e91d146100a4578063f2fde38b146101ea576100a4565b80632713201a146100ac57806343efdb3b146100cc578063471eac031461012c578063715018a61461015a5780637cd4bcdc1461016f576100a4565b366100a4576100a261020a565b005b6100a261020a565b3480156100b857600080fd5b506100a26100c7366004610624565b610241565b3480156100d857600080fd5b5061010a6100e73660046106e6565b600160208190526000918252604090912080549181015460029091015460ff1683565b6040805193845260208401929092521515908201526060015b60405180910390f35b34801561013857600080fd5b5061014c6101473660046106e6565b6102fe565b604051908152602001610123565b34801561016657600080fd5b506100a2610356565b34801561017b57600080fd5b506100a261018a366004610708565b61036a565b34801561019b57600080fd5b506000546040516001600160a01b039091168152602001610123565b3480156101c357600080fd5b504761014c565b3480156101d657600080fd5b5061014c6101e53660046106e6565b61046e565b3480156101f657600080fd5b506100a26102053660046106e6565b6104ca565b60405134815233907fad205a8b04dcbc91201ec4677fd2ef4e2b5c3e3367b8aa8463daee8256393e279060200160405180910390a2565b610249610548565b60188251111561026c57604051635047bf8d60e01b815260040160405180910390fd5b6001600160a01b0381166000908152600160208190526040909120600201805460ff1916909117905561029e82610732565b6001600160a01b038216600081815260016020819052604090912001919091557ffc74cfd8233f45e9700587bb8f37c28d77932dfd1cb119acd6795905c3feb1a26102e884610732565b6040519081526020015b60405180910390a25050565b6001600160a01b03811660009081526001602052604081206002015460ff1661033a57604051630cae904d60e11b815260040160405180910390fd5b506001600160a01b031660009081526001602052604090205490565b61035e610548565b61036860006105a2565b565b610372610548565b6001600160a01b03821660009081526001602052604090206002015460ff166103ae57604051630cae904d60e11b815260040160405180910390fd5b804710156103cf5760405163cba647a760e01b815260040160405180910390fd5b6001600160a01b038216600090815260016020526040812080548392906103f7908490610759565b90915550506040516001600160a01b0383169082156108fc029083906000818181858888f19350505050158015610432573d6000803e3d6000fd5b50816001600160a01b03167fbbb4d2b9d13b6730af1be39100fe46710d19d1b45bde9dedf1bc9ff4ed7287ae826040516102f291815260200190565b6001600160a01b03811660009081526001602052604081206002015460ff166104aa57604051630cae904d60e11b815260040160405180910390fd5b506001600160a01b03166000908152600160208190526040909120015490565b6104d2610548565b6001600160a01b03811661053c5760405162461bcd60e51b815260206004820152602660248201527f4f776e61626c653a206e6577206f776e657220697320746865207a65726f206160448201526564647265737360d01b60648201526084015b60405180910390fd5b610545816105a2565b50565b6000546001600160a01b031633146103685760405162461bcd60e51b815260206004820181905260248201527f4f776e61626c653a2063616c6c6572206973206e6f7420746865206f776e65726044820152606401610533565b600080546001600160a01b038381166001600160a01b0319831681178455604051919092169283917f8be0079c531659141344cd1fd0a4f28419497f9722a3daafe3b4186f6b6457e09190a35050565b634e487b7160e01b600052604160045260246000fd5b80356001600160a01b038116811461061f57600080fd5b919050565b6000806040838503121561063757600080fd5b823567ffffffffffffffff8082111561064f57600080fd5b818501915085601f83011261066357600080fd5b813581811115610675576106756105f2565b604051601f8201601f19908116603f0116810190838211818310171561069d5761069d6105f2565b816040528281528860208487010111156106b657600080fd5b8260208601602083013760006020848301015280965050505050506106dd60208401610608565b90509250929050565b6000602082840312156106f857600080fd5b61070182610608565b9392505050565b6000806040838503121561071b57600080fd5b61072483610608565b946020939093013593505050565b80516020808301519190811015610753576000198160200360031b1b821691505b50919050565b6000821982111561077a57634e487b7160e01b600052601160045260246000fd5b50019056fea2646970667358221220f50b73f788a3da2ef287d3ea9db560fbcc63704857c1cd98f13f592ee39b204764736f6c634300080a0033",
  "devdoc": {
    "kind": "dev",
    "methods": {
      "owner()": {
        "details": "Returns the address of the current owner."
      },
      "renounceOwnership()": {
        "details": "Leaves the contract without owner. It will not be possible to call `onlyOwner` functions. Can only be called by the current owner. NOTE: Renouncing ownership will leave the contract without an owner, thereby disabling any functionality that is only available to the owner."
      },
      "transferOwnership(address)": {
        "details": "Transfers ownership of the contract to a new account (`newOwner`). Can only be called by the current owner."
      }
    },
    "version": 1
  },
  "userdoc": {
    "kind": "user",
    "methods": {},
    "version": 1
  },
  "storageLayout": {
    "storage": [
      {
        "astId": 7,
        "contract": "contracts/FundRaiser.sol:FundRaiser",
        "label": "_owner",
        "offset": 0,
        "slot": "0",
        "type": "t_address"
      },
      {
        "astId": 5645,
        "contract": "contracts/FundRaiser.sol:FundRaiser",
        "label": "allowedCharities",
        "offset": 0,
        "slot": "1",
        "type": "t_mapping(t_address,t_struct(allowedCharity)5640_storage)"
      }
    ],
    "types": {
      "t_address": {
        "encoding": "inplace",
        "label": "address",
        "numberOfBytes": "20"
      },
      "t_bool": {
        "encoding": "inplace",
        "label": "bool",
        "numberOfBytes": "1"
      },
      "t_bytes32": {
        "encoding": "inplace",
        "label": "bytes32",
        "numberOfBytes": "32"
      },
      "t_mapping(t_address,t_struct(allowedCharity)5640_storage)": {
        "encoding": "mapping",
        "key": "t_address",
        "label": "mapping(address => struct FundRaiser.allowedCharity)",
        "numberOfBytes": "32",
        "value": "t_struct(allowedCharity)5640_storage"
      },
      "t_struct(allowedCharity)5640_storage": {
        "encoding": "inplace",
        "label": "struct FundRaiser.allowedCharity",
        "members": [
          {
            "astId": 5635,
            "contract": "contracts/FundRaiser.sol:FundRaiser",
            "label": "charityBalance",
            "offset": 0,
            "slot": "0",
            "type": "t_uint256"
          },
          {
            "astId": 5637,
            "contract": "contracts/FundRaiser.sol:FundRaiser",
            "label": "charityName",
            "offset": 0,
            "slot": "1",
            "type": "t_bytes32"
          },
          {
            "astId": 5639,
            "contract": "contracts/FundRaiser.sol:FundRaiser",
            "label": "exists",
            "offset": 0,
            "slot": "2",
            "type": "t_bool"
          }
        ],
        "numberOfBytes": "96"
      },
      "t_uint256": {
        "encoding": "inplace",
        "label": "uint256",
        "numberOfBytes": "32"
      }
    }
  }
}